{
  "contractName": "HealthShare",
  "abi": [
    {
      "anonymous": false,
      "inputs": [
        {
          "indexed": true,
          "internalType": "address",
          "name": "previousOwner",
          "type": "address"
        },
        {
          "indexed": true,
          "internalType": "address",
          "name": "newOwner",
          "type": "address"
        }
      ],
      "name": "OwnershipTransferred",
      "type": "event"
    },
    {
      "constant": true,
      "inputs": [],
      "name": "owner",
      "outputs": [
        {
          "internalType": "address",
          "name": "",
          "type": "address"
        }
      ],
      "payable": false,
      "stateMutability": "view",
      "type": "function"
    },
    {
      "constant": false,
      "inputs": [
        {
          "internalType": "address",
          "name": "_newOwner",
          "type": "address"
        }
      ],
      "name": "transferOwnership",
      "outputs": [],
      "payable": false,
      "stateMutability": "nonpayable",
      "type": "function"
    },
    {
      "constant": false,
      "inputs": [
        {
          "internalType": "uint256",
          "name": "_id",
          "type": "uint256"
        },
        {
          "internalType": "uint256",
          "name": "treatmentId",
          "type": "uint256"
        },
        {
          "internalType": "uint256",
          "name": "birthYear",
          "type": "uint256"
        },
        {
          "internalType": "bool",
          "name": "sexe",
          "type": "bool"
        },
        {
          "internalType": "string",
          "name": "postCode",
          "type": "string"
        },
        {
          "internalType": "string",
          "name": "country",
          "type": "string"
        },
        {
          "internalType": "string",
          "name": "medicalHistory",
          "type": "string"
        },
        {
          "internalType": "string",
          "name": "addressContract",
          "type": "string"
        }
      ],
      "name": "newPatient",
      "outputs": [],
      "payable": true,
      "stateMutability": "payable",
      "type": "function"
    },
    {
      "constant": false,
      "inputs": [
        {
          "internalType": "uint256",
          "name": "_id",
          "type": "uint256"
        },
        {
          "internalType": "string",
          "name": "_activeAgent",
          "type": "string"
        },
        {
          "internalType": "string",
          "name": "_descrition",
          "type": "string"
        },
        {
          "internalType": "string",
          "name": "_steps",
          "type": "string"
        }
      ],
      "name": "newTreatment",
      "outputs": [],
      "payable": true,
      "stateMutability": "payable",
      "type": "function"
    },
    {
      "constant": false,
      "inputs": [
        {
          "internalType": "uint256",
          "name": "_id",
          "type": "uint256"
        },
        {
          "internalType": "uint256",
          "name": "deathDate",
          "type": "uint256"
        }
      ],
      "name": "patientDeath",
      "outputs": [],
      "payable": true,
      "stateMutability": "payable",
      "type": "function"
    },
    {
      "constant": false,
      "inputs": [
        {
          "internalType": "uint256",
          "name": "_id",
          "type": "uint256"
        },
        {
          "internalType": "uint256",
          "name": "remissionDate",
          "type": "uint256"
        }
      ],
      "name": "patientRemision",
      "outputs": [],
      "payable": true,
      "stateMutability": "payable",
      "type": "function"
    },
    {
      "constant": true,
      "inputs": [
        {
          "internalType": "uint256",
          "name": "_id",
          "type": "uint256"
        }
      ],
      "name": "getTreatment",
      "outputs": [
        {
          "internalType": "string",
          "name": "",
          "type": "string"
        },
        {
          "internalType": "string",
          "name": "",
          "type": "string"
        },
        {
          "internalType": "string",
          "name": "",
          "type": "string"
        }
      ],
      "payable": false,
      "stateMutability": "view",
      "type": "function"
    },
    {
      "constant": true,
      "inputs": [
        {
          "internalType": "uint256",
          "name": "_id",
          "type": "uint256"
        }
      ],
      "name": "getPatientPrimaryData",
      "outputs": [
        {
          "internalType": "uint256",
          "name": "",
          "type": "uint256"
        },
        {
          "internalType": "bool",
          "name": "",
          "type": "bool"
        },
        {
          "internalType": "string",
          "name": "",
          "type": "string"
        },
        {
          "internalType": "string",
          "name": "",
          "type": "string"
        },
        {
          "internalType": "string",
          "name": "",
          "type": "string"
        },
        {
          "internalType": "string",
          "name": "",
          "type": "string"
        },
        {
          "internalType": "string",
          "name": "",
          "type": "string"
        }
      ],
      "payable": false,
      "stateMutability": "view",
      "type": "function"
    },
    {
      "constant": true,
      "inputs": [
        {
          "internalType": "uint256",
          "name": "_id",
          "type": "uint256"
        }
      ],
      "name": "getPatientDetailedData",
      "outputs": [
        {
          "internalType": "uint256",
          "name": "",
          "type": "uint256"
        },
        {
          "internalType": "uint256",
          "name": "",
          "type": "uint256"
        },
        {
          "internalType": "uint256",
          "name": "",
          "type": "uint256"
        }
      ],
      "payable": false,
      "stateMutability": "view",
      "type": "function"
    }
  ],
  "bytecode": "0x6080604052336000806101000a81548173ffffffffffffffffffffffffffffffffffffffff021916908373ffffffffffffffffffffffffffffffffffffffff160217905550611923806100536000396000f3fe6080604052600436106100865760003560e01c80639ba3bcd9116100595780639ba3bcd9146104bd578063bc0f600b14610660578063d5b4724c146106bd578063f26c5f5f146106f5578063f2fde38b1461088157610086565b806303e8cdf51461008b57806318a95735146101b85780632c4bef341461042e5780638da5cb5b14610466575b600080fd5b6101b6600480360360808110156100a157600080fd5b8101908080359060200190929190803590602001906401000000008111156100c857600080fd5b8201836020820111156100da57600080fd5b803590602001918460018302840111640100000000831117156100fc57600080fd5b90919293919293908035906020019064010000000081111561011d57600080fd5b82018360208201111561012f57600080fd5b8035906020019184600183028401116401000000008311171561015157600080fd5b90919293919293908035906020019064010000000081111561017257600080fd5b82018360208201111561018457600080fd5b803590602001918460018302840111640100000000831117156101a657600080fd5b90919293919293905050506108d2565b005b3480156101c457600080fd5b506101f1600480360360208110156101db57600080fd5b81019080803590602001909291905050506109f5565b6040518088815260200187151515158152602001806020018060200180602001806020018060200186810386528b818151815260200191508051906020019080838360005b83811015610251578082015181840152602081019050610236565b50505050905090810190601f16801561027e5780820380516001836020036101000a031916815260200191505b5086810385528a818151815260200191508051906020019080838360005b838110156102b757808201518184015260208101905061029c565b50505050905090810190601f1680156102e45780820380516001836020036101000a031916815260200191505b50868103845289818151815260200191508051906020019080838360005b8381101561031d578082015181840152602081019050610302565b50505050905090810190601f16801561034a5780820380516001836020036101000a031916815260200191505b50868103835288818151815260200191508051906020019080838360005b83811015610383578082015181840152602081019050610368565b50505050905090810190601f1680156103b05780820380516001836020036101000a031916815260200191505b50868103825287818151815260200191508051906020019080838360005b838110156103e95780820151818401526020810190506103ce565b50505050905090810190601f1680156104165780820380516001836020036101000a031916815260200191505b509c5050505050505050505050505060405180910390f35b6104646004803603604081101561044457600080fd5b810190808035906020019092919080359060200190929190505050610dce565b005b34801561047257600080fd5b5061047b610f43565b604051808273ffffffffffffffffffffffffffffffffffffffff1673ffffffffffffffffffffffffffffffffffffffff16815260200191505060405180910390f35b61065e60048036036101008110156104d457600080fd5b810190808035906020019092919080359060200190929190803590602001909291908035151590602001909291908035906020019064010000000081111561051b57600080fd5b82018360208201111561052d57600080fd5b8035906020019184600183028401116401000000008311171561054f57600080fd5b90919293919293908035906020019064010000000081111561057057600080fd5b82018360208201111561058257600080fd5b803590602001918460018302840111640100000000831117156105a457600080fd5b9091929391929390803590602001906401000000008111156105c557600080fd5b8201836020820111156105d757600080fd5b803590602001918460018302840111640100000000831117156105f957600080fd5b90919293919293908035906020019064010000000081111561061a57600080fd5b82018360208201111561062c57600080fd5b8035906020019184600183028401116401000000008311171561064e57600080fd5b9091929391929390505050610f68565b005b34801561066c57600080fd5b506106996004803603602081101561068357600080fd5b8101908080359060200190929190505050611154565b60405180848152602001838152602001828152602001935050505060405180910390f35b6106f3600480360360408110156106d357600080fd5b8101908080359060200190929190803590602001909291905050506111ab565b005b34801561070157600080fd5b5061072e6004803603602081101561071857600080fd5b8101908080359060200190929190505050611320565b60405180806020018060200180602001848103845287818151815260200191508051906020019080838360005b8381101561077657808201518184015260208101905061075b565b50505050905090810190601f1680156107a35780820380516001836020036101000a031916815260200191505b50848103835286818151815260200191508051906020019080838360005b838110156107dc5780820151818401526020810190506107c1565b50505050905090810190601f1680156108095780820380516001836020036101000a031916815260200191505b50848103825285818151815260200191508051906020019080838360005b83811015610842578082015181840152602081019050610827565b50505050905090810190601f16801561086f5780820380516001836020036101000a031916815260200191505b50965050505050505060405180910390f35b34801561088d57600080fd5b506108d0600480360360208110156108a457600080fd5b81019080803573ffffffffffffffffffffffffffffffffffffffff169060200190929190505050611548565b005b6108db8761176b565b15610955576000610954576040517f08c379a000000000000000000000000000000000000000000000000000000000815260040180806020018281038252601e8152602001807f746869732074726561746d656e74496420616c7265616479206578697374000081525060200191505060405180910390fd5b5b6000600160008981526020019081526020016000209050338160000160006101000a81548173ffffffffffffffffffffffffffffffffffffffff021916908373ffffffffffffffffffffffffffffffffffffffff16021790555086868260010191906109c2929190611849565b5084848260020191906109d6929190611849565b5082828260030191906109ea929190611849565b505050505050505050565b60008060608060608060606002600089815260200190815260200160002060020154600260008a815260200190815260200160002060030160009054906101000a900460ff16600260008b8152602001908152602001600020600401600260008c8152602001908152602001600020600501600260008d8152602001908152602001600020600601600260008e8152602001908152602001600020600701600260008f8152602001908152602001600020600a01848054600181600116156101000203166002900480601f016020809104026020016040519081016040528092919081815260200182805460018160011615610100020316600290048015610b3e5780601f10610b1357610100808354040283529160200191610b3e565b820191906000526020600020905b815481529060010190602001808311610b2157829003601f168201915b50505050509450838054600181600116156101000203166002900480601f016020809104026020016040519081016040528092919081815260200182805460018160011615610100020316600290048015610bda5780601f10610baf57610100808354040283529160200191610bda565b820191906000526020600020905b815481529060010190602001808311610bbd57829003601f168201915b50505050509350828054600181600116156101000203166002900480601f016020809104026020016040519081016040528092919081815260200182805460018160011615610100020316600290048015610c765780601f10610c4b57610100808354040283529160200191610c76565b820191906000526020600020905b815481529060010190602001808311610c5957829003601f168201915b50505050509250818054600181600116156101000203166002900480601f016020809104026020016040519081016040528092919081815260200182805460018160011615610100020316600290048015610d125780601f10610ce757610100808354040283529160200191610d12565b820191906000526020600020905b815481529060010190602001808311610cf557829003601f168201915b50505050509150808054600181600116156101000203166002900480601f016020809104026020016040519081016040528092919081815260200182805460018160011615610100020316600290048015610dae5780601f10610d8357610100808354040283529160200191610dae565b820191906000526020600020905b815481529060010190602001808311610d9157829003601f168201915b505050505090509650965096509650965096509650919395979092949650565b816002600082815260200190815260200160002060000160009054906101000a900473ffffffffffffffffffffffffffffffffffffffff1673ffffffffffffffffffffffffffffffffffffffff163373ffffffffffffffffffffffffffffffffffffffff1614610ea6576040517f08c379a00000000000000000000000000000000000000000000000000000000081526004018080602001828103825260168152602001807f796f7520646f6e74206f776e207468697320646174610000000000000000000081525060200191505060405180910390fd5b82610eb0816117da565b610f22576040517f08c379a000000000000000000000000000000000000000000000000000000000815260040180806020018281038252601c8152602001807f746869732070617469656e74496420646f65736e27742065786973740000000081525060200191505060405180910390fd5b82600260008681526020019081526020016000206009018190555050505050565b6000809054906101000a900473ffffffffffffffffffffffffffffffffffffffff1681565b610f718b61176b565b610fea576000610fe9576040517f08c379a000000000000000000000000000000000000000000000000000000000815260040180806020018281038252601e8152602001807f746869732074726561746d656e74496420646f65736e2774206578697374000081525060200191505060405180910390fd5b5b610ff38c6117da565b1561106d57600061106c576040517f08c379a000000000000000000000000000000000000000000000000000000000815260040180806020018281038252601c8152602001807f746869732070617469656e74496420616c72656164792065786973740000000081525060200191505060405180910390fd5b5b6000600260008e81526020019081526020016000209050338160000160006101000a81548173ffffffffffffffffffffffffffffffffffffffff021916908373ffffffffffffffffffffffffffffffffffffffff1602179055508b81600101819055508a8160020181905550898160030160006101000a81548160ff0219169083151502179055508888826004019190611108929190611849565b50868682600501919061111c929190611849565b508484826007019190611130929190611849565b50828282600a019190611144929190611849565b5050505050505050505050505050565b60008060006002600085815260200190815260200160002060010154600260008681526020019081526020016000206008015460026000878152602001908152602001600020600901549250925092509193909250565b816002600082815260200190815260200160002060000160009054906101000a900473ffffffffffffffffffffffffffffffffffffffff1673ffffffffffffffffffffffffffffffffffffffff163373ffffffffffffffffffffffffffffffffffffffff1614611283576040517f08c379a00000000000000000000000000000000000000000000000000000000081526004018080602001828103825260168152602001807f796f7520646f6e74206f776e207468697320646174610000000000000000000081525060200191505060405180910390fd5b8261128d816117da565b6112ff576040517f08c379a000000000000000000000000000000000000000000000000000000000815260040180806020018281038252601c8152602001807f746869732070617469656e74496420646f65736e27742065786973740000000081525060200191505060405180910390fd5b82600260008681526020019081526020016000206008018190555050505050565b6060806060600160008581526020019081526020016000206001016001600086815260200190815260200160002060020160016000878152602001908152602001600020600301828054600181600116156101000203166002900480601f0160208091040260200160405190810160405280929190818152602001828054600181600116156101000203166002900480156113fc5780601f106113d1576101008083540402835291602001916113fc565b820191906000526020600020905b8154815290600101906020018083116113df57829003601f168201915b50505050509250818054600181600116156101000203166002900480601f0160208091040260200160405190810160405280929190818152602001828054600181600116156101000203166002900480156114985780601f1061146d57610100808354040283529160200191611498565b820191906000526020600020905b81548152906001019060200180831161147b57829003601f168201915b50505050509150808054600181600116156101000203166002900480601f0160208091040260200160405190810160405280929190818152602001828054600181600116156101000203166002900480156115345780601f1061150957610100808354040283529160200191611534565b820191906000526020600020905b81548152906001019060200180831161151757829003601f168201915b505050505090509250925092509193909250565b6000809054906101000a900473ffffffffffffffffffffffffffffffffffffffff1673ffffffffffffffffffffffffffffffffffffffff163373ffffffffffffffffffffffffffffffffffffffff161461160a576040517f08c379a00000000000000000000000000000000000000000000000000000000081526004018080602001828103825260158152602001807f796f7520617265206e6f7420746865206f776e6572000000000000000000000081525060200191505060405180910390fd5b600073ffffffffffffffffffffffffffffffffffffffff168173ffffffffffffffffffffffffffffffffffffffff1614156116ad576040517f08c379a000000000000000000000000000000000000000000000000000000000815260040180806020018281038252601d8152602001807f6e65774f6e776e65722073686f756c64206e6f7420626520656d70747900000081525060200191505060405180910390fd5b8073ffffffffffffffffffffffffffffffffffffffff166000809054906101000a900473ffffffffffffffffffffffffffffffffffffffff1673ffffffffffffffffffffffffffffffffffffffff167f8be0079c531659141344cd1fd0a4f28419497f9722a3daafe3b4186f6b6457e060405160405180910390a3806000806101000a81548173ffffffffffffffffffffffffffffffffffffffff021916908373ffffffffffffffffffffffffffffffffffffffff16021790555050565b60008073ffffffffffffffffffffffffffffffffffffffff166001600084815260200190815260200160002060000160009054906101000a900473ffffffffffffffffffffffffffffffffffffffff1673ffffffffffffffffffffffffffffffffffffffff1614159050919050565b60008073ffffffffffffffffffffffffffffffffffffffff166002600084815260200190815260200160002060000160009054906101000a900473ffffffffffffffffffffffffffffffffffffffff1673ffffffffffffffffffffffffffffffffffffffff1614159050919050565b828054600181600116156101000203166002900490600052602060002090601f016020900481019282601f1061188a57803560ff19168380011785556118b8565b828001600101855582156118b8579182015b828111156118b757823582559160200191906001019061189c565b5b5090506118c591906118c9565b5090565b6118eb91905b808211156118e75760008160009055506001016118cf565b5090565b9056fea265627a7a7231582037ca5086d46eaaac5d8118b681634961ad739aaca90d804cabc83d4d3b6a647464736f6c63430005100032",
  "source": "pragma solidity ^0.5.0;\r\nimport \"./ownable.sol\";\r\n\r\ncontract HealthShare is Ownable {\r\n\r\n    struct Treatment {\r\n        address payable treatmentOwner;\r\n        string activeAgent;\r\n        string description;\r\n        string steps;\r\n    }\r\n\r\n    struct Patient {\r\n        address payable dataOwner;\r\n        uint treatmentId;\r\n        uint birthYear;\r\n        bool sexe;\r\n        string postCode;\r\n        string country;\r\n        string refPhysician;\r\n        string medicalHistory;\r\n        uint remissionDate;\r\n        uint deathDate;\r\n        string addressContract;\r\n    }\r\n\r\n    // bytes[] memory patients;\r\n\r\n    mapping(uint => Treatment) treatments;\r\n    mapping(uint => Patient) patients;\r\n\r\n    modifier onlyDataOwner(uint _id) {\r\n        require(msg.sender == patients[_id].dataOwner, \"you dont own this data\");\r\n        _;\r\n    }\r\n\r\n    modifier onlyTreatmentOwner(uint _id) {\r\n        require(msg.sender == treatments[_id].treatmentOwner, \"you dont own this treatment\");\r\n        _;\r\n    }\r\n\r\n    modifier issetPatient(uint _id) {\r\n        require(patientExist(_id), \"this patientId doesn't exist\");\r\n        _;\r\n    }\r\n\r\n    modifier issetTreatment(uint _id) {\r\n        require(treatmentExist(_id), \"this TreatmentId doesn't exist\");\r\n        _;\r\n    }\r\n\r\n    function newPatient(\r\n        uint _id,\r\n        uint treatmentId,\r\n        uint birthYear,\r\n        bool sexe,\r\n        string calldata postCode,\r\n        string calldata country,\r\n        string calldata medicalHistory,\r\n        string calldata addressContract\r\n    ) external payable{\r\n        if ( !treatmentExist(treatmentId) ) {\r\n            require(false, \"this treatmentId doesn't exist\");\r\n        }\r\n        if ( patientExist(_id) ){\r\n            require(false, \"this patientId already exist\");\r\n        }\r\n        Patient storage patient = patients[_id];\r\n        patient.dataOwner = msg.sender;\r\n        patient.treatmentId = treatmentId;\r\n        patient.birthYear = birthYear;\r\n        patient.sexe = sexe;\r\n        patient.postCode = postCode;\r\n        patient.country = country;\r\n        patient.medicalHistory = medicalHistory;\r\n        patient.addressContract = addressContract;\r\n    }\r\n\r\n\r\n    function newTreatment(\r\n        uint _id,\r\n        string calldata _activeAgent,\r\n        string calldata _descrition,\r\n        string calldata _steps\r\n    ) external payable{\r\n        if ( treatmentExist(_id) ) {\r\n            require(false, \"this treatmentId already exist\");\r\n        }\r\n        Treatment storage treatment = treatments[_id];\r\n        treatment.treatmentOwner = msg.sender;\r\n        treatment.activeAgent = _activeAgent;\r\n        treatment.description = _descrition;\r\n        treatment.steps = _steps;\r\n    }\r\n\r\n\r\n    function patientDeath(\r\n        uint _id,\r\n        uint deathDate\r\n    ) external onlyDataOwner(_id) issetPatient(_id) payable {\r\n        patients[_id].deathDate = deathDate;\r\n    }\r\n\r\n    function patientRemision(\r\n        uint _id,\r\n        uint remissionDate\r\n    ) external onlyDataOwner(_id) issetPatient(_id) payable {\r\n        patients[_id].remissionDate = remissionDate;\r\n    }\r\n\r\n    // function patientScreening(\r\n    //     uint _id,\r\n    //     uint screeningDate\r\n    // ) external onlyDataOwner(_id) issetPatient(_id) payable {\r\n    //     patients[_id].screeningDate = screeningDate;\r\n    // }\r\n\r\n    function getTreatment(\r\n        uint _id\r\n    ) external view returns (\r\n        string memory,\r\n        string memory,\r\n        string memory\r\n    ) {\r\n        return (\r\n        treatments[_id].activeAgent,\r\n        treatments[_id].description,\r\n        treatments[_id].steps\r\n        );\r\n    }\r\n\r\n    function getPatientPrimaryData(\r\n        uint _id\r\n    ) external view returns (\r\n        uint,\r\n        bool,\r\n        string memory,\r\n        string memory,\r\n        string memory,\r\n        string memory,\r\n        string memory\r\n    ){\r\n        return (\r\n        patients[_id].birthYear,\r\n        patients[_id].sexe,\r\n        patients[_id].postCode,\r\n        patients[_id].country,\r\n        patients[_id].refPhysician,\r\n        patients[_id].medicalHistory,\r\n        patients[_id].addressContract\r\n        );\r\n    }\r\n\r\n    function getPatientDetailedData(\r\n        uint _id\r\n    ) external view returns (\r\n        uint,\r\n    //    uint,\r\n        uint,\r\n        uint\r\n    ){\r\n        return (\r\n        patients[_id].treatmentId,\r\n        //  patients[_id].screeningDate,\r\n        patients[_id].remissionDate,\r\n        patients[_id].deathDate\r\n        );\r\n    }\r\n\r\n    function treatmentExist(\r\n        uint id\r\n    ) private view returns (bool){\r\n        return treatments[id].treatmentOwner != address(0);\r\n    }\r\n\r\n    function patientExist(\r\n        uint id\r\n    ) private view returns (bool){\r\n        return patients[id].dataOwner != address(0);\r\n    }\r\n}",
  "sourcePath": "C:/Users/coulm/WebstormProjects/AntiCovid19Blockchain/smartDeployment/contracts/HealthShare.sol",
  "compiler": {
    "name": "solc",
    "version": "0.5.16+commit.9c3226ce.Emscripten.clang"
  },
  "schemaVersion": "3.3.2",
  "updatedAt": "2021-01-21T13:42:58.991Z",
  "networkType": "ethereum",
  "devdoc": {
    "methods": {
      "transferOwnership(address)": {
        "details": "Allows the current owner to transfer control of the contract to a newOwner.",
        "params": {
          "_newOwner": "The address to transfer ownership to."
        }
      }
    }
  },
  "userdoc": {
    "methods": {}
  }
}